:060000000A128A11122809
:10000800FE00030EF0000408F1000A08F200831253
:1000180003137F08F3000A128A11EF2F0A128A11BC
:100028001528831603130A128A11FC270A128A114B
:10003800A6000A128A11FD270A128A11A7000A12BD
:100048008A11FE270A128A11A800831203130A12C2
:100058008A11FF27EE00EC01ED01F601F701F80126
:10006800F90183010A128A11952D831203132E08B0
:10007800B4002F08B5003008B6000310350D360D52
:10008800B7003708BA003108B4003208B5003308A1
:10009800B6000310350D360DB7003708B9003A0819
:1000A8000319622839083A02031869283A03FF3A03
:1000B8003907B40019303402031C69283108AE002E
:1000C8003208AF003308B0000800390803190800E7
:1000D8003A083902031878283903FF3A3A07B40076
:1000E80019303402031808000630B4003408B80088
:1000F800B01BB817B31B3817AF17FF30AE05FF306A
:10010800AF050030B005B217FF30B105FF30B205BA
:100118000030B30539083A020318B8280130031033
:10012800B10DB20DB30DFF3E031D93280130B90286
:1001380039083A060319B3280130B80238080739D4
:100148000319B328922801300310B00CAF0CAE0C81
:10015800FF3E031DA8280130B4003408BA073A0846
:1001680039060319E128A7283A0839020318E128B3
:1001780001300310AE0DAF0DB00DFF3E031DBD28BD
:100188000130BA0239083A060319DD280130B802ED
:10019800380807390319DD28BC2801300310B30CCF
:1001A800B20CB10CFF3E031DD2280130B400340854
:1001B800B9073A083906031DD128B81FF328FF30BC
:1001C800AE06FF30AF06FF30B0060130AE07003094
:1001D80003180130AF07003003180130B007381F8B
:1001E8000529FF30B106FF30B206FF30B3060130F3
:1001F800B107003003180130B2070030031801308E
:10020800B307B8012E08B1072F08031103182F0AE6
:10021800031DB207300803110318300A031DB30782
:10022800B31F2829FF30B106FF30B206FF30B306EE
:100238000130B107003003180130B207003003184D
:100248000130B307B801B80A3108A0003208A1008C
:100258003308A2003A08B4003408A3003808B500EF
:100268003508A4000A128A11812783120313200873
:10027800AE002108AF002208B00008008312031363
:100288006708A0006808A1006908A200C030A300A0
:100298007930A4004430A5000A128A157F260A1274
:1002A8008A1103186C29003083120313A000F03060
:1002B800A1004130A2006708A3006808A4006908EB
:1002C800A5000A128A157F260A128A1103187029B6
:1002D80083120313EB01A729003083120313A00034
:1002E8002030A1004130A2006708A3006808A400DC
:1002F8006908A5000A128A157F260A128A11031CAA
:10030800872903309D29003083120313A000A030F1
:10031800A1004130A2006708A3006808A40069088A
:10032800A5000A128A157F260A128A11031CA3291E
:10033800023083120313EA006A08EB00A72983122C
:100348000313EB01EB0A8316031328088312031324
:100358006906031DBD298316031327088312031397
:100368006806031DBD298316031326088312031389
:1003780067060319F829A10100300A128A155A25BF
:100388000A128A114F300A128A1573250A128A1125
:10039800831203136B08031DD3294630E129831206
:1003A80003136708D9006808DA006908DB000A1235
:1003B8008A1136230A128A1149300A128A157325BE
:1003C8000A128A1183120313670883160313A600FF
:1003D80083120313680883160313A70083120313F9
:1003E800690883160313A80083126B086E060319A5
:1003F800080001300A128A152A250A128A11202AB1
:1004080021300A128A1573250A128A11302A3C30C3
:100418000A128A1573250A128A11302A5C300A12C8
:100428008A1573250A128A11302A2F300A128A1562
:1004380073250A128A11302A831203136B08003AB3
:100448000319192A013A0319042A033A03190B2A32
:10045800013A0319122A302A831203136708AC00E1
:100468006808AD006908AE000A128A15362683129C
:1004780003136B08EA006A08EE00080000308312D4
:100488000313E5000030E4000030E3000030E20030
:1004980007104E2A83120313071402308312031322
:1004A800DE00DE0B552A0000831203130710E60155
:1004B800E701652A0130E6070318E70A0030E70775
:1004C8000000831203138718702A753067023030D2
:1004D80003196602031C5E2A75306702303003195F
:1004E8006602031C7E2AC030DB007930DC00443011
:1004F800DD0008008F018E0101309000E601E70160
:100508009B2A0130E6070318E70A0030E707753031
:100518006702303003196602031C9A2A9001C03022
:10052800DB007930DC004430DD0008000000831275
:100538000313871CA62A7530670230300319660238
:10054800031C852A90010E08DE00DF010F08E00079
:10055800E1016008E100E0015E086004E2005F0874
:100568006104E300E401E31BE4036408E5000030F0
:10057800CB000030CC004030CD004430BB000B3005
:10058800BC003D30BD006508AB006408AA006308E4
:10059800A9006208A8000A128A1593250A128A116E
:1005A800831203132808BE002908BF002A08C000C8
:1005B8000A128A110A240A128A11831203133B08A9
:1005C800CE003C08CF003D08D0000A128A11DD2475
:1005D8000A128A11831203134B08F6004C08F7001D
:1005E8004D08F8007608A0007708A1007808A20056
:1005F8000030A3000030A4000030A5000A128A15BC
:100608007F260A128A1103180F2B0030F6000030DB
:10061800F7000030F800003083120313A000F03018
:10062800A1004130A2007608A3007708A40078084A
:10063800A5000A128A157F260A128A1103182D2B83
:10064800C03083120313DB007930DC004430DD0056
:100658000800760883120313DB007708DC007808AB
:10066800DD000800831203135908CB005A08CC0098
:100678005B08CD000A128A15DE260A128A11831237
:1006880003134C08E6004B08E5006608A900650856
:10069800A8000A128A1542250A128A118312031326
:1006A8002808AB002908AC002A08AD000A128A15F0
:1006B80020250A128A11831203132B08B1002C0873
:1006C800B2002D08B3005908AE005A08AF005B0805
:1006D800B0000A128A1139200A128A1183120313F0
:1006E8002E08BE002F08BF003008C0000030BB0035
:1006F8002030BC004130BD000A128A110A240A12B7
:100708008A11831203133B08CB003C08CC003D0838
:10071800CD000A128A15DE260A128A1183120313E3
:100728004C08E2004B08E10065086604031DA32B92
:1007380030300A128A156C270A128A11FC2B831290
:100748000313E301E401650866040319EF2B0A307B
:10075800A0000030A1006608A3006508A2000A12E4
:100768008A15C4250A128A11831203132008303E01
:10077800DC0063085D3E84005C0883138000013060
:10078800E3070318E40A0030E4070A30A000003049
:10079800A1006608A3006508A2000A128A15F825B8
:1007A8000A128A11831203132108E6002008E500C3
:1007B800A72BFF3083120313E3070318E40AFF3063
:1007C800E40763085D3E8400831300080A128A1553
:1007D8006C270A128A11831203136408803AFF00F7
:1007E80080307F02031DFA2B013063020318DD2BD2
:1007F8002E300A128A156C270A128A1183120313E3
:100808006108303E0A128A156C2708008312031308
:100818003B08C1003C08C2003D08C3000310420D5C
:10082800430DC4004408C5004508031D222C0030B0
:10083800BB000030BC000030BD0008003E08C1000D
:100848003F08C2004008C3000310420D430DC40016
:100858004408CA004A08031D382C0030BB00003089
:10086800BC000030BD0008004A087B3EC1004108BA
:10087800C5073B08C1003C08C2003D08C300103052
:100888000310C30CC20CC10CFF3E031D442C4108CD
:10089800C4004408CA003E08C1003F08C20040081E
:1008A800C30010300310C30CC20CC10CFF3E031D63
:1008B800562C4108C4004408CA068030C1004108CB
:1008C800CA05BC17BF17FF30BE05FF30BF05003093
:1008D800C0050030C6000030C7000030C80007302F
:1008E800C1004108C9003B1C872C3E08C6073F08C9
:1008F800031103183F0A031DC70740080311031813
:10090800400A031DC80701300310BD0CBC0CBB0C0A
:10091800FF3E031D882C01300310BE0DBF0DC00D16
:10092800FF3E031D902C0130C902031D772C0930AE
:10093800C1004108C9003B1CAF2C3E08C6073F0850
:10094800031103183F0A031DC707400803110318C2
:10095800400A031DC80701300310BD0CBC0CBB0CBA
:10096800FF3E031DB02C01300310C80CC70CC60C89
:10097800FF3E031DB82C0130C902031D9F2C4608F9
:10098800A0004708A1004808A2004508C100410886
:10099800A3004A08C2004208A4000A128A1181274B
:1009A800831203132008BB002108BC002208BD00E5
:1009B8000800831203134E08D1004F08D2005008D4
:1009C800D3000310520D530DD4005408D900590810
:1009D800031DF52C0030CB000030CC000030CD00DA
:1009E80008004B08D1004C08D2004D08D300031072
:1009F800520D530DD4005408DA005A08031D0B2D6C
:100A08000030CB000030CC000030CD0008000030B2
:100A1800D6000030D7000030D80089305A07D100FE
:100A28005108D9024E08D1004F08D2005008D3000F
:100A380010300310D30CD20CD10CFF3E031D1D2D1A
:100A48005108D4005408DA004B08D1004C08D200F1
:100A58004D08D30010300310D30CD20CD10CFF3E3C
:100A6800031D2F2D5108D4005408DA068030D10018
:100A78005108DA05CF17FF30CE05FF30CF0500301B
:100A8800D005CC17FF30CB05FF30CC050030CD05A5
:100A98001830D1005108D50001300310D60DD70DFC
:100AA800D80DFF3E031D512D4D085002031D622D28
:100AB8004C084F02031D622D4B084E02031C6F2D7C
:100AC8004B08CE024C08031C4C0FCF024D08031CE8
:100AD8004D0AD002561401300310CE0DCF0DD00DA3
:100AE800FF3E031D702D0130D502031D502D560801
:100AF800A0005708A1005808A2005908D1005108C1
:100B0800A3005A08D2005208A4000A128A118127A9
:100B1800831203132008CB002108CC002208CD0043
:100B280008000F30831603139F0007309C0007103E
:100B38008714071187118312031386018701900117
:100B48008F018E018B17823083160313A100DD30CD
:100B5800A000A00BAD2DA10BAD2D0A128A114726BE
:100B68000A128A1112300A128A1573250A128A117A
:100B780083120313A10101300A128A155A250A1299
:100B88008A1156300A128A1573250A128A110B30F7
:100B980083160313A2002630A1005D30A000A00B2D
:100BA800D32DA10BD32DA20BD32D01300A128A11FC
:100BB800E9260A128A1183120313071503308316D4
:100BC8000313A2008A30A1005530A000A00BEA2D23
:100BD800A10BEA2DA20BEA2D831203130711871527
:100BE800033083160313A2008A30A1005530A000F9
:100BF800A00BFC2DA10BFC2DA20BFC2D83120313C3
:100C0800871101300A128A11E9260A128A110A127A
:100C18008A1142220A128A11831203135B0883166F
:100C28000313A300831203135C0883160313A400A1
:100C3800831203135D0883160313A5002308831288
:100C48000313E70083160313240883120313E80031
:100C580083160313250883120313E9000A128A1165
:100C680042210A128A11023083160313A200863029
:100C7800A1009830A000A00B3F2EA10B3F2EA20B85
:100C88003F2E00000B2E83160313860183120313D5
:100C980086011A3083120313A200F730A100A10BBA
:100CA800532EA20B532E582E8312031306108610B0
:100CB8008613061386160616861407308312031346
:100CC800A2007C30A100A10B672EA20B672E0000AA
:100CD800831203138610073083120313A2007C309B
:100CE800A100A10B752EA20B752E00008312031311
:100CF8008614073083120313A2007C30A100A10BD5
:100D0800832EA20B832E0000831203138610073054
:100D180083120313A2007C30A100A10B912EA20B19
:100D2800912E0000831203138614073083120313D5
:100D3800A2007C30A100A10B9F2EA20B9F2E0000C9
:100D4800831203138610073083120313A2007C302A
:100D5800A100A10BAD2EA20BAD2E00008312031330
:100D68008613061386160612861407308312031399
:100D7800A2007C30A100A10BBF2EA20BBF2E000049
:100D8800831203138610073083120313A2007C30EA
:100D9800A100A10BCD2EA20BCD2E000028300A12E7
:100DA8008A11E9260A128A110C300A128A11E926D8
:100DB8000A128A1106300A128A11E9260A128A11C1
:100DC80001300A128A11E926080083120313A000D1
:100DD80006102008F40007300310F40CFF3E031D32
:100DE800F02E741CFB2E831203138617FE2E83121B
:100DF800031386132008F40006300310F40CFF3E9A
:100E0800031D012F741C0C2F8312031306170F2FB9
:100E18008312031306132008F40005300310F40CA2
:100E2800FF3E031D122F741C1D2F831203138616F9
:100E3800202F8312031386122008F40004300310B5
:100E4800F40CFF3E031D232F741C2E2F8312031353
:100E58000616312F8312031306128614332F8312BA
:100E6800031386102008F40003300310F40CFF3E2F
:100E7800031D392F741C442F831203138617472F21
:100E88008312031386132008F40002300310F40CB5
:100E9800FF3E031D4A2F741C552F83120313061798
:100EA800582F8312031306132008F400013003108F
:100EB800F40CFF3E031D5B2F741C662F8312031373
:100EC8008616692F831203138612201C6F2F831234
:100ED80003130616722F8312031306128614742F37
:100EE8008312031386100330F5009730F400F40BD7
:100EF8007B2FF50B7B2F802F080083120313230809
:100F080003198B2F220821042004031D9E2F003073
:100F1800A0000030A1000030A20008000130A500A8
:100F28002508A30701300310A20CA10CA00CFF3E5A
:100F3800031D972FFE3022050319B92F922F013078
:100F4800A5002508A3070130A007003003180130C9
:100F5800A107003003180130A20701300310A20CCA
:100F6800A10CA00CFF3E031DB22FFF302205031970
:100F7800C82FA32F0130A30201300310A00DA10D2B
:100F8800A20DFF3E031DC12FA11BCE2F023023024D
:100F98000318BE2F2318D62FFF30A0057F30A105D8
:100FA800FF30A2050310A30C2308A500A601A70182
:100FB80010300310A50DA60DA70DFF3E031DDD2F54
:100FC8002508A0042608A1042708A2042408031958
:100FD8000800A21708000B180B107308FF0072080E
:100FE8008A0071088400700E8300FE0E7E0E0900D0
:100FF80000348034BF34FF3408308A000408840A7F
:101008008207003420342034203420342034203423
:101018002034203420342034203420342034203428
:101028002034203400345034613472346B346934E1
:101038006E3467342034533465346E3473346F340B
:101048007234003453344134463445342034443403
:1010580049345334543441344E34433445340034E1
:101068004F345534543420344F34463420345234B9
:1010780041344E3447344534003453344C344F34BF
:101088005734203444344F3457344E3400342D34DC
:101098002D342D34203463346D342034203400341E
:1010A80044346934733474343A3420340034523458
:1010B80065346134643479340034533454344F34EF
:0410C800503400346C
:101A4000831203132D082C042B0403190800803083
:101A5000AD06080083120313A700A10127080A128C
:101A60008A155A250A128A1501300A128A15732519
:101A70000A128A1583120313A10127080A128A1574
:101A80005A250800831203132808A0002908A10082
:101A9000A2018E30F4007408A300A4010A128A1176
:101AA0008127831203132008A8002108A900220817
:101AB000AA00080083120313A30023080319632D4F
:101AC0002108C03E652D2108803EA5000030031886
:101AD0000130A6002508A2002208A40024080A124A
:101AE0008A11E926080083120313A100210884004B
:101AF0000A128A1500200A128A15003A03190800F2
:101B0000210884000A128A1500200A128A150A1276
:101B10008A156C270A128A15013083120313A0005C
:101B20002008A107762D8E30F4007408F500FF30F0
:101B3000831203132B050319AD2D013003108312FB
:101B40000313AB0CAA0CA90CA80CFF3E031D9E2D81
:101B50000130F4007408F507972D2808A000290823
:101B6000A1002A08A2007508F4007408A300A401CB
:101B70000A128A118127831203132008A800210862
:101B8000A9002208AA0008008312031320082104D8
:101B90000319F32DF501F50AA11BDA2D013003100D
:101BA000A00DA10DFF3E031DCF2D0130F4007408E0
:101BB000F507CC2D21082302031DE02D2008220269
:101BC000031CE82D2008A2022108031CA303A30282
:101BD00001300310A10CA00CFF3E031DE92D0130C4
:101BE000F502031DDA2D2308A1002208A000080039
:101BF00083120313A501A601200821040319312E25
:101C0000A401A40AA11B102E01300310A00DA10DE8
:101C1000FF3E031D052E0130F4007408A407022EB8
:101C200001300310A50DA60DFF3E031D112E210846
:101C30002302031D1D2E20082202031C262E20082D
:101C4000A2022108031CA303A302251401300310E0
:101C5000A10CA00CFF3E031D272E0130A402031D82
:101C6000102E2608A1002508A000080083120313E7
:101C7000071187112C08A0002D08A1002E08A20032
:101C8000C030A3007930A4004430A5000A128A15A0
:101C90007F260A128A1503180800003083120313E6
:101CA000A000F030A1004130A2002C08A3002D08B4
:101CB000A4002E08A5000A128A157F260A128A158A
:101CC000031C0800003083120313A000A030A10001
:101CD0004130A2002C08A3002D08A4002E08A50066
:101CE0000A128A157F260A128A15031C7B2E83127C
:101CF00003130715080083120313871508008312C6
:101D00000313A21FA82E0030A6000030A7008030C9
:101D1000A8002009A9002109AA002209AB00A90AEC
:101D20000319AA0A0319AB0A2908A6072A080318E7
:101D30002A0F9B2E9C2EA7072B0803182B0FA12ED2
:101D4000A22EA8072608A0002708A1002808A200A4
:101D5000A51FCF2E0030A6000030A7008030A800BD
:101D60002309A9002409AA002509AB00A90A03191F
:101D7000AA0A0319AB0A2908A6072A0803182A0F7A
:101D8000C22EC32EA7072B0803182B0FC82EC92E4F
:101D9000A8072608A3002708A4002808A50080306B
:101DA000A2068030A50625082202031D080024088B
:101DB0002102031D080023082002080083120313D8
:101DC0004B08CF004C08D0004D08D1000310500D37
:101DD000510DD2005208D8005808031DF82E0030CB
:101DE000CE000030CD000030CC000030CB00080029
:101DF0004B08CF004C08D0004D08D100173003101D
:101E0000D10CD00CCF0CFF3E031DFF2E4F08D2008B
:101E10005208D300CC17FF30CB05FF30CC05003083
:101E2000CD054B08D4004C08D5004D08D600D7018D
:101E30008E30D802D81F3A2F5808803A8F3E0318A8
:101E40002A2F0030CE000030CD000030CC00003012
:101E5000CB00080001300310D70CD60CD50CD40CE5
:101E6000FF3E031D2B2F0130CF004F08D807031969
:101E7000552F2A2F18305802031C522F0030CE0045
:101E80000030CD000030CC000030CB000800013025
:101E9000CF000310D40DD50DD60DD70DCF0B492F84
:101EA0000130D8025808031D472F53080319632F28
:101EB000D409D509D609D709D40A0319D50A0319B3
:101EC000D60A0319D70A5708CE005608CD00550880
:101ED000CC005408CB000800F5008312031306144D
:101EE0007508F40007300310F40CFF3E031D732F38
:101EF000741C7E2F831203138617812F8312031302
:101F000086137508F40006300310F40CFF3E031D21
:101F1000842F741C8F2F831203130617922F8312A2
:101F2000031306137508F40005300310F40CFF3E8C
:101F3000031D952F741CA02F831203138616A32F45
:101F40008312031386127508F40004300310F40C96
:101F5000FF3E031DA62F741CB12F83120313061618
:101F6000B42F8312031306128614B62F83120313A1
:101F700086107508F40003300310F40CFF3E031DB7
:101F8000BC2F741CC72F831203138617CA2F83120A
:101F9000031386137508F40002300310F40CFF3E9F
:101FA000031DCD2F741CD82F831203130617DB2FAC
:101FB0008312031306137508F40001300310F40CA8
:101FC000FF3E031DDE2F741CE92F831203138616B8
:101FD000EC2F831203138612751CF22F8312031346
:101FE0000616F52F8312031306128614F72F831299
:101FF000031386101030F400F40BFC2F00000800CF
:02400E007A3FF7
:00000001FF
